{
  "contractName": "FoodInfoItem",
  "abi": [
    {
      "inputs": [
        {
          "name": "name",
          "type": "string"
        },
        {
          "name": "traceName",
          "type": "string"
        },
        {
          "name": "quality",
          "type": "uint256"
        },
        {
          "name": "producer",
          "type": "address"
        }
      ],
      "payable": false,
      "stateMutability": "nonpayable",
      "type": "constructor"
    },
    {
      "constant": false,
      "inputs": [
        {
          "name": "traceName",
          "type": "string"
        },
        {
          "name": "distributor",
          "type": "address"
        },
        {
          "name": "quality",
          "type": "uint8"
        }
      ],
      "name": "addTraceInfoByDistributor",
      "outputs": [
        {
          "name": "",
          "type": "bool"
        }
      ],
      "payable": false,
      "stateMutability": "nonpayable",
      "type": "function"
    },
    {
      "constant": false,
      "inputs": [
        {
          "name": "tracename",
          "type": "string"
        },
        {
          "name": "retailer",
          "type": "address"
        },
        {
          "name": "quality",
          "type": "uint8"
        }
      ],
      "name": "addTraceInfoByRetailer",
      "outputs": [
        {
          "name": "",
          "type": "bool"
        }
      ],
      "payable": false,
      "stateMutability": "nonpayable",
      "type": "function"
    },
    {
      "constant": true,
      "inputs": [],
      "name": "getTraceInfo",
      "outputs": [
        {
          "name": "",
          "type": "uint256[]"
        },
        {
          "name": "",
          "type": "string[]"
        },
        {
          "name": "",
          "type": "address[]"
        },
        {
          "name": "",
          "type": "uint256[]"
        }
      ],
      "payable": false,
      "stateMutability": "view",
      "type": "function"
    },
    {
      "constant": true,
      "inputs": [],
      "name": "getFood",
      "outputs": [
        {
          "name": "",
          "type": "uint256"
        },
        {
          "name": "",
          "type": "string"
        },
        {
          "name": "",
          "type": "string"
        },
        {
          "name": "",
          "type": "string"
        },
        {
          "name": "",
          "type": "address"
        },
        {
          "name": "",
          "type": "uint256"
        }
      ],
      "payable": false,
      "stateMutability": "view",
      "type": "function"
    }
  ],
  "bytecode": "0x60806040523480156200001157600080fd5b50604051620015b5380380620015b58339810180604052620000379190810190620002fb565b60064290806001815401808255809150509060018203906000526020600020016000909192909190915055506005839080600181540180825580915050906001820390600052602060002001600090919290919091509080519060200190620000a2929190620001c2565b505060078190806001815401808255809150509060018203906000526020600020016000909192909190916101000a81548173ffffffffffffffffffffffffffffffffffffffff021916908373ffffffffffffffffffffffffffffffffffffffff16021790555050600882908060018154018082558091505090600182039060005260206000200160009091929091909150555083600190805190602001906200014e929190620001c2565b50826000908051906020019062000167929190620001c2565b5081600381905550600060048190555033600260006101000a81548173ffffffffffffffffffffffffffffffffffffffff021916908373ffffffffffffffffffffffffffffffffffffffff1602179055505050505062000454565b828054600181600116156101000203166002900490600052602060002090601f016020900481019282601f106200020557805160ff191683800117855562000236565b8280016001018555821562000236579182015b828111156200023557825182559160200191906001019062000218565b5b50905062000245919062000249565b5090565b6200026e91905b808211156200026a57600081600090555060010162000250565b5090565b90565b60006200027f8251620003f4565b905092915050565b600082601f83011215156200029b57600080fd5b8151620002b2620002ac82620003c7565b62000399565b91508082526020830160208301858383011115620002cf57600080fd5b620002dc8382846200041e565b50505092915050565b6000620002f3825162000414565b905092915050565b600080600080608085870312156200031257600080fd5b600085015167ffffffffffffffff8111156200032d57600080fd5b6200033b8782880162000287565b945050602085015167ffffffffffffffff8111156200035957600080fd5b620003678782880162000287565b93505060406200037a87828801620002e5565b92505060606200038d8782880162000271565b91505092959194509250565b6000604051905081810181811067ffffffffffffffff82111715620003bd57600080fd5b8060405250919050565b600067ffffffffffffffff821115620003df57600080fd5b601f19601f8301169050602081019050919050565b600073ffffffffffffffffffffffffffffffffffffffff82169050919050565b6000819050919050565b60005b838110156200043e57808201518184015260208101905062000421565b838111156200044e576000848401525b50505050565b61115180620004646000396000f300608060405260043610610062576000357c0100000000000000000000000000000000000000000000000000000000900463ffffffff16806306e7296714610067578063f0d984e4146100a4578063f5ecc980146100d2578063f650350d14610102575b600080fd5b34801561007357600080fd5b5061008e60048036036100899190810190610b11565b61013f565b60405161009b9190610e72565b60405180910390f35b3480156100b057600080fd5b506100b961034c565b6040516100c99493929190610e11565b60405180910390f35b3480156100de57600080fd5b506100e7610577565b6040516100f996959493929190610f0d565b60405180910390f35b34801561010e57600080fd5b5061012960048036036101249190810190610b11565b6107e0565b6040516101369190610e72565b60405180910390f35b600080600454141515610187576040517f08c379a000000000000000000000000000000000000000000000000000000000815260040161017e90610ead565b60405180910390fd5b3373ffffffffffffffffffffffffffffffffffffffff16600260009054906101000a900473ffffffffffffffffffffffffffffffffffffffff1673ffffffffffffffffffffffffffffffffffffffff16141515610219576040517f08c379a000000000000000000000000000000000000000000000000000000000815260040161021090610e8d565b60405180910390fd5b600642908060018154018082558091505090600182039060005260206000200160009091929091909150555060058490806001815401808255809150509060018203906000526020600020016000909192909190915090805190602001906102829291906109ee565b5050836000908051906020019061029a9291906109ee565b5060078390806001815401808255809150509060018203906000526020600020016000909192909190916101000a81548173ffffffffffffffffffffffffffffffffffffffff021916908373ffffffffffffffffffffffffffffffffffffffff160217905550508160ff16600381905550600860035490806001815401808255809150509060018203906000526020600020016000909192909190915055506001600481905550600190509392505050565b6060806060806006600560076008838054806020026020016040519081016040528092919081815260200182805480156103a557602002820191906000526020600020905b815481526020019060010190808311610391575b5050505050935082805480602002602001604051908101604052809291908181526020016000905b82821015610489578382906000526020600020018054600181600116156101000203166002900480601f0160208091040260200160405190810160405280929190818152602001828054600181600116156101000203166002900480156104755780601f1061044a57610100808354040283529160200191610475565b820191906000526020600020905b81548152906001019060200180831161045857829003601f168201915b5050505050815260200190600101906103cd565b5050505092508180548060200260200160405190810160405280929190818152602001828054801561051057602002820191906000526020600020905b8160009054906101000a900473ffffffffffffffffffffffffffffffffffffffff1673ffffffffffffffffffffffffffffffffffffffff16815260200190600101908083116104c6575b505050505091508080548060200260200160405190810160405280929190818152602001828054801561056257602002820191906000526020600020905b81548152602001906001019080831161054e575b50505050509050935093509350935090919293565b600060608060606000806006600081548110151561059157fe5b9060005260206000200154600560008154811015156105ac57fe5b9060005260206000200160016000600760008154811015156105ca57fe5b9060005260206000200160009054906101000a900473ffffffffffffffffffffffffffffffffffffffff16600354848054600181600116156101000203166002900480601f01602080910402602001604051908101604052809291908181526020018280546001816001161561010002031660029004801561068d5780601f106106625761010080835404028352916020019161068d565b820191906000526020600020905b81548152906001019060200180831161067057829003601f168201915b50505050509450838054600181600116156101000203166002900480601f0160208091040260200160405190810160405280929190818152602001828054600181600116156101000203166002900480156107295780601f106106fe57610100808354040283529160200191610729565b820191906000526020600020905b81548152906001019060200180831161070c57829003601f168201915b50505050509350828054600181600116156101000203166002900480601f0160208091040260200160405190810160405280929190818152602001828054600181600116156101000203166002900480156107c55780601f1061079a576101008083540402835291602001916107c5565b820191906000526020600020905b8154815290600101906020018083116107a857829003601f168201915b50505050509250955095509550955095509550909192939495565b600080600454141515610828576040517f08c379a000000000000000000000000000000000000000000000000000000000815260040161081f90610ecd565b60405180910390fd5b3373ffffffffffffffffffffffffffffffffffffffff16600260009054906101000a900473ffffffffffffffffffffffffffffffffffffffff1673ffffffffffffffffffffffffffffffffffffffff161415156108ba576040517f08c379a00000000000000000000000000000000000000000000000000000000081526004016108b190610eed565b60405180910390fd5b600642908060018154018082558091505090600182039060005260206000200160009091929091909150555060058490806001815401808255809150509060018203906000526020600020016000909192909190915090805190602001906109239291906109ee565b5050836000908051906020019061093b9291906109ee565b5060078390806001815401808255809150509060018203906000526020600020016000909192909190916101000a81548173ffffffffffffffffffffffffffffffffffffffff021916908373ffffffffffffffffffffffffffffffffffffffff160217905550508160ff166003819055506008829080600181540180825580915050906001820390600052602060002001600090919260ff16909190915055506002600481905550600190509392505050565b828054600181600116156101000203166002900490600052602060002090601f016020900481019282601f10610a2f57805160ff1916838001178555610a5d565b82800160010185558215610a5d579182015b82811115610a5c578251825591602001919060010190610a41565b5b509050610a6a9190610a6e565b5090565b610a9091905b80821115610a8c576000816000905550600101610a74565b5090565b90565b6000610a9f8235611097565b905092915050565b600082601f8301121515610aba57600080fd5b8135610acd610ac882610fb0565b610f83565b91508082526020830160208301858383011115610ae957600080fd5b610af48382846110c4565b50505092915050565b6000610b0982356110b7565b905092915050565b600080600060608486031215610b2657600080fd5b600084013567ffffffffffffffff811115610b4057600080fd5b610b4c86828701610aa7565b9350506020610b5d86828701610a93565b9250506040610b6e86828701610afd565b9150509250925092565b610b8181611061565b82525050565b6000610b9282611003565b808452602084019350610ba483610fdc565b60005b82811015610bd657610bba868351610b78565b610bc38261103a565b9150602086019550600181019050610ba7565b50849250505092915050565b6000610bed8261100e565b80845260208401935083602082028501610c0685610fe9565b60005b84811015610c3f578383038852610c21838351610cf0565b9250610c2c82611047565b9150602088019750600181019050610c09565b508196508694505050505092915050565b6000610c5b82611019565b808452602084019350610c6d83610ff6565b60005b82811015610c9f57610c83868351610e02565b610c8c82611054565b9150602086019550600181019050610c70565b50849250505092915050565b610cb481611081565b82525050565b6000610cc58261102f565b808452610cd98160208601602086016110d3565b610ce281611106565b602085010191505092915050565b6000610cfb82611024565b808452610d0f8160208601602086016110d3565b610d1881611106565b602085010191505092915050565b6000601e82527f6f6e6c7920747261636520636f6e74726163742063616e20696e636f6b6500006020830152604082019050919050565b6000601882527f737461747573206d7573742062652070726f647563696e6700000000000000006020830152604082019050919050565b6000601a82527f737461747573206d757374206265206469737472696275746f720000000000006020830152604082019050919050565b6000601e82527f6f6e6c7920747261636520636f6e74617263742063616e206f6e636f6b6500006020830152604082019050919050565b610e0b8161108d565b82525050565b60006080820190508181036000830152610e2b8187610c50565b90508181036020830152610e3f8186610be2565b90508181036040830152610e538185610b87565b90508181036060830152610e678184610c50565b905095945050505050565b6000602082019050610e876000830184610cab565b92915050565b60006020820190508181036000830152610ea681610d26565b9050919050565b60006020820190508181036000830152610ec681610d5d565b9050919050565b60006020820190508181036000830152610ee681610d94565b9050919050565b60006020820190508181036000830152610f0681610dcb565b9050919050565b600060c082019050610f226000830189610e02565b8181036020830152610f348188610cba565b90508181036040830152610f488187610cba565b90508181036060830152610f5c8186610cba565b9050610f6b6080830185610b78565b610f7860a0830184610e02565b979650505050505050565b6000604051905081810181811067ffffffffffffffff82111715610fa657600080fd5b8060405250919050565b600067ffffffffffffffff821115610fc757600080fd5b601f19601f8301169050602081019050919050565b6000602082019050919050565b6000602082019050919050565b6000602082019050919050565b600081519050919050565b600081519050919050565b600081519050919050565b600081519050919050565b600081519050919050565b6000602082019050919050565b6000602082019050919050565b6000602082019050919050565b600073ffffffffffffffffffffffffffffffffffffffff82169050919050565b60008115159050919050565b6000819050919050565b600073ffffffffffffffffffffffffffffffffffffffff82169050919050565b600060ff82169050919050565b82818337600083830152505050565b60005b838110156110f15780820151818401526020810190506110d6565b83811115611100576000848401525b50505050565b6000601f19601f83011690509190505600a265627a7a72305820a63c46798ff6035e938799f1710efc2a61e8240e768fb193940d41d0284168cc6c6578706572696d656e74616cf50037",
  "source": "// SPDX-License-Identifier: MIT\r\npragma solidity ^0.4.25;\r\npragma experimental ABIEncoderV2;\r\ncontract FoodInfoItem {\r\n    string _currentTraceName; //当前用户名\r\n    string _name; //食品名称\r\n    address _owner; //合约创建者\r\n    uint _quality; //质量（0：优质1：合格2：不合格）\r\n    uint _status; //状态（0：生产1：分销2：出售）\r\n    string[] _traceName; //流转过程用户名\r\n    uint[] _timestamp; //各个阶段时间戳\r\n    address[] _traceAddress; //流转用户地址\r\n    uint[] _traceQuality; //流转质量\r\n    //初始化生产商\r\n    constructor(string name, string traceName, uint quality, address producer) public {\r\n        _timestamp.push(now);\r\n        _traceName.push(traceName);\r\n        _traceAddress.push(producer);\r\n        _traceQuality.push(quality);\r\n        _name = name;\r\n        _currentTraceName = traceName;\r\n        _quality = quality;\r\n        _status = 0;\r\n        _owner = msg.sender;\r\n    }\r\n    //添加分销商\r\n    function addTraceInfoByDistributor(string traceName,address distributor,uint8 quality) public returns (bool) {\r\n        require(_status == 0, \"status must be producing\");\r\n        require(_owner == msg.sender, \"only trace contract can incoke\");\r\n        _timestamp.push(now);\r\n        _traceName.push(traceName);\r\n        _currentTraceName = traceName;\r\n        _traceAddress.push(distributor);\r\n        _quality = quality;\r\n        _traceQuality.push(_quality);\r\n        _status = 1;\r\n        return true;\r\n    }\r\n    //添加商店\r\n    function addTraceInfoByRetailer(string tracename, address retailer, uint8 quality) public returns(bool){\r\n        require(_status == 0,\"status must be distributor\");\r\n        require(_owner == msg.sender,\"only trace contarct can oncoke\");\r\n        _timestamp.push(now);\r\n        _traceName.push(tracename);\r\n        _currentTraceName = tracename;\r\n        _traceAddress.push(retailer);\r\n        _quality = quality;\r\n        _traceQuality.push(quality);\r\n        _status = 2;\r\n        return true;\r\n    }\r\n    \r\n    function getTraceInfo() public constant returns(uint[],string[],address[],uint[]){\r\n        return (_timestamp,_traceName,_traceAddress,_traceQuality);\r\n    }\r\n    function getFood() public constant returns(uint, string , string  , string , address, uint){\r\n        return(_timestamp[0],_traceName[0],_name,_currentTraceName,_traceAddress[0],_quality);\r\n    }\r\n}\r\n",
  "sourcePath": "E:\\Truffle\\demo\\contracts\\FoodInfoItem.sol",
  "compiler": {
    "name": "solc",
    "version": "0.4.25+commit.59dbf8f1.Emscripten.clang"
  },
  "schemaVersion": "3.4.16",
  "updatedAt": "2024-03-17T09:08:06.607Z",
  "devdoc": {
    "methods": {}
  },
  "userdoc": {
    "methods": {}
  }
}